:030000000223B721
:0C23B700787FE4F6D8FD7581210223FE3A
:10287600121013F59D90000112102CFFE5BC549F19
:102886004FF5BC90000212102CB4010543BC8080A9
:102896000353BC7F90000312102CB401054397200C
:1028A60080035397DF90000512102CB40104D2ADBB
:1028B6008002C2AD90000412102CB40103D2BD22D6
:0328C600C2BD226E
:102B12007882743FF2087420F2087401F2E408F239
:102B220008F208F27BFE7A0079821228767F01028F
:022B32002C80F5
:0C2C8000EFB4010443BC802253BC7F224F
:10270A00EFD3940740028051E4F5BDF5BEE5BC5411
:10271A00E044084FF5BC00000000E4FBE5BC30E4EF
:10272A003353BCEFE59730E509E5BD5403ADBEFC74
:10273A00801DAFBD7C00AD07ED7E007802C333CEAD
:10274A0033CED8F9FFE5BE5403FDEEFCEF4DFDAFE5
:0D275A0005AE04220BEBB4FAC37E047F0031
:01276700224F
:03002B0002001FB1
:04001F0053BCEF32AD
:0F2C44007D527C03ED1D70011C144C70F7DFF105
:012C5300225E
:1028FC00E47882F2D2C520C5257F01122C4420C574
:10290C001A20C5147882E2C39464500C7F0A122CEE
:10291C00447882E204F280E97F01227F00227F006A
:01292C002288
:10292D00E47882F2D2802080257F01122C44208011
:10293D001A2080147882E2C39464500C7F0A122C02
:10294D00447882E204F280E97F01227F00227F0039
:01295D002257
:10295E00E47882F2D2812081257F01122C442081DD
:10296E001A2081147882E2C39464500C7F0A122CD0
:10297E00447882E204F280E97F01227F00227F0008
:01298E002226
:10298F00E47882F2D2822082257F01122C442082A9
:10299F001A2082147882E2C39464500C7F0A122C9E
:1029AF00447882E204F280E97F01227F00227F00D7
:0129BF0022F5
:1029C000E47882F2D2832083257F01122C44208375
:1029D0001A2083147882E2C39464500C7F0A122C6C
:1029E000447882E204F280E97F01227F00227F00A6
:0129F00022C4
:1029F100E47882F2D2842084257F01122C44208441
:102A01001A2084147882E2C39464500C7F0A122C39
:102A1100447882E204F280E97F01227F00227F0074
:012A21002292
:102BC600D2C520C50E7F01122C4420C5037F0122E9
:062BD6007F00227F0022B7
:102BDC00D28020800E7F01122C442080037F0122A2
:062BEC007F00227F0022A1
:102BF200D28120810E7F01122C442081037F012289
:062C02007F00227F00228A
:102C0800D28220820E7F01122C442082037F01226F
:062C18007F00227F002274
:10231700E47800F2087411F275900FE590640F707D
:10232700030223B27F05122C44E590640F607C758D
:10233700900FAF90AE90EE24F5601124FE60141458
:10234700601824077019E47801F280137801740487
:10235700F2800C78017408F280057801740CF2752C
:1023670090F0AF90AF90EF2450601424E0601824F1
:10237700F06018247070187801E22403F280107856
:1023870001E22402F280087801801B7801E2F278EA
:1023970000E2C3648094E45012E59064F0600C7F1F
:0F23A7000A122C447800E204F280E47801E2FF8D
:0123B6002204
:040026001223172268
:102640004368616E6E656C3A200053636F72653A41
:1026500020002564B5E32564004368616E6E656CF7
:102660003A20310053636F72653A2025322E31666D
:102670002020004368616E6E656C3A20320043682A
:10268000616E6E656C3A2033004368616E6E656CF6
:102690003A2034004368616E6E656C3A2035004321
:0A26A00068616E6E656C3A2036002A
:102A500074FE121059900001740612106B9000025F
:102A6000740112106B900003ED12106B7886E290E7
:0D2A7000000412106B900005748002106BC2
:0526AA00EEF208EFF262
:1026AF00D3EF9401EE64809480500B7882121266FF
:1026BF00000000008018AD07AC06EC120BC97B00C0
:1026CF007AC0797F7844120B27788212125A788257
:1026DF00E2FC08E2FD08E2FE08E2FFE4FBFA79C83B
:1026EF007842120A1E788212125A7882E2FC08E2AD
:0A26FF00FD08E2FE08E2FF120C02E3
:0127090022AD
:1012F400E47841F2F594F593122016122A2212276B
:1013040068122B12D2AFE4FBFDFF1224CA7B01E466
:10131400FD7F121224CA7B02E4FD7F241224CA7BBF
:1013240003E4FD7F361224CA7B04E4FD7F481224C3
:10133400CA788574FFF2087426F2087440F27BFEC2
:101344007A0079421218B67BFE7A00794278877463
:1013540010F27D02E4FF12281F788574FFF20874EE
:1013640026F208744AF202144D20A057787CE270E9
:1013740052788574FFF2087426F2087452F2786A7F
:10138400E2FA08E2FB7C007D0AFFAE021210F47858
:1013940088EEF208EFF27C007D0AAF03AE02121071
:1013A400F4788AECF208EDF27BFE7A0079421218A6
:1013B400B67BFE7A007942E4FF1221B5787C740191
:1013C400F2800730A004E4787CF21228FCEF70036A
:1013D40002146BE4FF12270A786A1226AA786AEECE
:1013E400F208EFF27BFE7A0079761808E27886F24A
:1013F4007D01122A507D06122BAD788574FFF20808
:101404007426F2087459F27BFE7A0079421218B6F7
:101414007BFE7A00794278877410F27D02E4FF1231
:10142400281F788574FFF2087426F2087464F27831
:101434006AE2FC08E2FDEC120BC9E4FBFA792078BD
:1014440041120B27788812125A7BFE7A00794212D5
:1014540018B67BFE7A00794278877410F27D04E432
:10146400FF12281F02136D12292DEF700302151DA0
:101474007F0112270A786C1226AA786CEEF208EF24
:10148400F27BFE7A0079761808E27886F27D021201
:101494002A507D06122BAD788574FFF2087426F26B
:1014A400087473F27BFE7A0079421218B67BFE7AD6
:1014B40000794278877410F27D02E4FF12281F78C5
:1014C4008574FFF2087426F2087464F2786CE2FC06
:1014D40008E2FDEC120BC9E4FBFA79207841120B07
:1014E40027788812125A7BFE7A0079421218B67B4A
:1014F400FE7A00794278877410F27D04E4FF1228A2
:101504001F30A10302136D788574FFF2087426F26C
:10151400087452F2786C02172F12295EEF700302DE
:1015240015CF7F0212270A786E1226AA786EEEF281
:1015340008EFF27BFE7A0079761808E27886F27D6D
:1015440003122A507D06122BAD788574FFF20874BD
:1015540026F208747EF27BFE7A0079421218B67B7A
:10156400FE7A00794278877410F27D02E4FF122833
:101574001F788574FFF2087426F2087464F2786E9A
:10158400E2FC08E2FDEC120BC9E4FBFA7920784195
:10159400120B27788812125A7BFE7A0079421218AD
:1015A400B67BFE7A00794278877410F27D04E4FFFA
:1015B40012281F30A20302136D788574FFF2087499
:1015C40026F2087452F2786E02172F12298FEF70E8
:1015D400030216817F0312270A78701226AA7870F4
:1015E400EEF208EFF27BFE7A0079761808E278864C
:1015F400F27D04122A507D06122BAD788574FFF219
:10160400087426F2087489F27BFE7A007942121873
:10161400B67BFE7A00794278877410F27D02E4FF8B
:1016240012281F788574FFF2087426F2087464F295
:101634007870E2FC08E2FDEC120BC9E4FBFA7920B5
:101644007841120B27788812125A7BFE7A0079426D
:101654001218B67BFE7A00794278877410F27D0402
:10166400E4FF12281F30A30302136D788574FFF280
:10167400087426F2087452F2787002172F1229C0E7
:10168400EF700302176E7F0412270A78721226AADB
:101694007872EEF208EFF27BFE7A0079761808E2AF
:1016A4007886F27D05122A500D122BAD788574FFD1
:1016B400F2087426F2087494F27BFE7A00794212DE
:1016C40018B67BFE7A00794278877410F27D02E4C2
:1016D400FF12281F788574FFF2087426F2087464D8
:1016E400F27872E2FC08E2FDEC120BC9E4FBFA7931
:1016F400207841120B27788812125A7BFE7A0079DF
:10170400421218B67BFE7A00794278877410F27D13
:1017140004E4FF12281F30A40302136D788574FFBC
:10172400F2087426F2087452F27872E2FA08E2FBC4
:101734007C007D0AFFAE021210F47888EEF208EF06
:10174400F27C007D0AAF03AE021210F4788AECF248
:1017540008EDF27BFE7A0079421218B67BFE7A001D
:101764007942E4FF1221B502136D1229F1EF7003DF
:1017740002136D7F0512270A78741226AA7874EE74
:10178400F208EFF27BFE7A0079761808E27886F2A6
:101794007D06122A50122BAD788574FFF208742648
:1017A400F208749FF27BFE7A0079421218B67BFE2F
:1017B4007A00794278877410F27D02E4FF12281FC0
:1017C400788574FFF2087426F2087464F27874E27F
:1017D400FC08E2FDEC120BC9E4FBFA792078411213
:1017E4000B27788812125A7BFE7A0079421218B6B7
:1017F4007BFE7A00794278877410F27D04E4FF124C
:10180400281F30A50302136D788574FFF20874262F
:10181400F2087452F27874E2FA08E2FB7C007D0A62
:10182400FFAE021210F47888EEF208EFF27C007D2D
:101834000AAF03AE021210F4788AECF208EDF27BE0
:10184400FE7A0079421218B67BFE7A007942E4FFF0
:061854001221B502136D24
:100046000000000000000000002F00000000070074
:10005600070000147F147F1400242A7F2A120062EE
:10006600640813230036495522500000050300009A
:1000760000001C224100000041221C000014083E22
:1000860008140008083E0808000000A060000008E8
:10009600080808080000606000000020100804023C
:1000A600003E5149453E0000427F400000426151FA
:1000B6004946002141454B31001814127F10002794
:1000C60045454539003C4A49493000017109050357
:1000D60000364949493600064949291E0000363688
:1000E60000000000563600000008142241000014EB
:1000F60014141414000041221408000201510906C8
:1001060000324959513E007C1211127C007F494948
:100116004936003E41414122007F4141221C007F79
:1001260049494941007F09090901003E4149497A87
:10013600007F0808087F0000417F41000020404101
:100146003F01007F08142241007F40404040007F6D
:10015600020C027F007F0408107F003E4141413EB1
:10016600007F09090906003E4151215E007F0919F9
:1001760029460046494949310001017F0101003FF6
:100186004040403F001F2040201F003F4038403F76
:1001960000631408146300070870080700615149DA
:1001A600454300007F41410000552A552A5500006D
:1001B60041417F00000402010204004040404040EB
:1001C600000001020400002054545478007F484483
:1001D600443800384444442000384444487F0038BA
:1001E6005454541800087E0901020018A4A4A47CE3
:1001F600007F080404780000447D400000408084AD
:100206007D00007F102844000000417F4000007CF4
:1002160004180478007C0804047800384444443800
:1002260000FC242424180018242418FC007C08044C
:10023600040800485454542000043F444020003C25
:100246004040207C001C2040201C003C4030403CAC
:10025600004428102844001CA0A0A07C004464543C
:100266004C44141414141414000000000000000080
:100276000000000000000000000000F80000000080
:10028600000000333000000000100C06100C0600C1
:10029600000000000000000040C07840C078400028
:1002A600043F04043F040400007088FC083000008A
:1002B600001820FF211E0000F008F000E0180000E2
:1002C60000211C031E211E0000F00888700000009B
:1002D6001E2123241927211010160E0000000000ED
:1002E6000000000000000000000000E0180402000A
:1002F600000000071820400000020418E00000007B
:100306000040201807000000404080F08040400078
:100316000202010F01020200000000F000000000CE
:100326000101011F010101000000000000000000A2
:1003360080B0700000000000000000000000000017
:1003460000010101010101010000000000000000A0
:10035600003030000000000000000000806018043B
:10036600006018060100000000E010080810E00018
:10037600000F102020100F00001010F800000000E1
:100386000020203F20200000007008080888700028
:1003960000302824222130000030088888483000A8
:1003A6000018202020110E000000C02010F80000C8
:1003B60000070424243F240000F808888808080061
:1003C6000019212020110E0000E010888818000076
:1003D600000F112020110E0000380808C838080048
:1003E6000000003F000000000070880808887000C8
:1003F600001C222121221C0000E010080810E00049
:100406000000312222110F00000000C0C0000000D1
:1004160000000030300000000000008000000000F6
:1004260000008060000000000000804020100800EE
:1004360000010204081020004040404040404000B7
:100446000404040404040400000810204080000092
:100456000020100804020100007048080808F00097
:100466000000003036010000C030C828E810E00067
:100476000718272423140B000000C038E0000000F2
:10048600203C23020227382008F88888887000005C
:10049600203F202020110E00C03008080808380030
:1004A600071820202010080008F808080810E000A7
:1004B600203F202020100F0008F88888E808100048
:1004C600203F20202320180008F88888E80810001C
:1004D600203F200003000000C03008080838000054
:1004E60007182020221E020008F808000008F80855
:1004F600203F210101213F20000808F808080000DC
:100506000020203F2020000000000808F80808000E
:10051600C08080807F00000008F888C02818080086
:10052600203F20012638200008F8080000000000BF
:10053600203F20202020300008F8F800F8F80800B6
:10054600203F003F003F200008F830C00008F808B0
:10055600203F200007183F00E01008080810E000C0
:100566000F10202020100F0008F808080808F000D7
:10057600203F210101010000E01008080810E000FA
:100586000F18242438504F0008F88888888870008F
:10059600203F2000030C302000708808080838002F
:1005A6000038202121221C00180808F80808180025
:1005B6000000203F2000000008F808000008F808A6
:1005C600001F202020201F000878880000C8380857
:1005D600000007380E010000F80800F80008F800CF
:1005E600033C0700073C0300081868808068180869
:1005F60020302C03032C30200838C800C8380800E7
:100606000000203F2000000010080808C838080035
:100616002038262120201800000000FE02020200D9
:100626000000007F40404000000C30C00000000089
:10063600000000010638C00000020202FE000000B1
:10064600004040407F000000000004020202040057
:100656000000000000000000000000000000000094
:10066600808080808080808000020204000000007C
:100676000000000000000000000080808080000074
:100686000019242222223F2008F800808000000062
:10069600003F112020110E00000000808080000025
:1006A600000E112020201100000000808088F80034
:1006B600000E112020103F20000080808080000066
:1006C600001F222222221300008080F088888818CA
:1006D6000020203F202000000000808080808000D5
:1006E600006B94949493600008F80080808000006A
:1006F600203F210000203F20008098980000000045
:100706000020203F20200000000000809898000074
:1007160000C08080807F000008F800008080800094
:10072600203F24022D302000000808F800000000B9
:100736000020203F20200000808080808080800074
:10074600203F20003F20003F808000808080000006
:10075600203F210000203F20000080808080000094
:10076600001F202020201F008080008080000000C5
:1007760080FFA12020110E000000008080808000F4
:10078600000E112020A0FF808080800080808000E5
:1007960020203F2120000100000080808080800012
:1007A6000033242424241900008080E08080000087
:1007B6000000001F202000008080000000808000D4
:1007C600001F202020103F20808080000080808035
:1007D60000010E30080601008080008000808080C5
:1007E6000F300C030C300F000080800080808000EA
:1007F6000020312E0E312000808080000080808015
:1008060080818E70180601000080808080808000C4
:100816000021302C2221300000000000807C0202E2
:1008260000000000003F404000000000FF00000004
:1008360000000000FF0000000002027C80000000B3
:100846000040403F000000000006010102020404CF
:1008560000000000000000000040424242C27E420A
:10086600C24242424040000000000000000000007A
:100876000000000000000000804020100C03000073
:100886003F404040407000000000000000000000B3
:1008960000000000000000002030AC6320188090AB
:1008A60090FF90494A484000000000000000000008
:1008B60000000000000000002267221212124040D1
:1008C60020130C142241F800000000000000000074
:1008D6000000000000000000404042CC0000126210
:1008E60002FE02423200000000000000000000008C
:1008F60000000000000000000000003F1009010198
:1009060001FF0101010101000000000000000000DC
:100916000000000000000000804020908886808053
:1009260080838C1020408000000000000000000042
:100936000000000000000000008040201807004072
:1009460080403F00000000000000000000000000A2
:10095600000000000000000080809E9292929EE0BF
:10096600809EB2D2929E800000000000000000002F
:1009760000000000000000000808F4949292F100C4
:1009860001F2929494F808000000000000000000B4
:1009960000000000000000002424A4FEA322002280
:1009A600CC0000FF00000000000000000000000076
:1009B6000000000000000000080601FF000104041A
:1009C600040404FF02020200000000000000000010
:1009D6000000000000000000101010FF10900888B2
:1009E6008888FF8888880800000000000000000052
:1009F60000000000000000000444827F0180804067
:100A0600432C1028468180000000000000000000F2
:080A16000000000000000000D8
:092C8C00D2B3D2B4C2B4C2B32227
:072C9500D2B3C2B4D2B42295
:0B2C5400122A84122C5FAF04122A84A5
:052C5F00D2B3C2B32254
:072A7D00AC07122C8C7F78DE
:102A8400C2B3E4FEAD07ED5480B48004D2B4800236
:0F2A9400C2B4EF25E0FFD2B3C2B30EEEB408E533
:012AA3002210
:0E2C6400122A7D122C5FE4FF122C54022C95D4
:0E2C7200122A7D122C5F7F40122C54022C95EA
:102B3400122B45E4FDFCFFFE122B457F10E4FDFC47
:012B4400FE92
:102B4500AB07AA06ED4C6003022C72AF03122C648E
:012B5500225D
:0728C9007889E2FF08E2FD3F
:1028D000A907ED24B0FFE433FEE4FDFC122B45E92B
:1028E00054F0C4540F7E004410FFE4FDFC122B454D
:0C28F000E9540FFF7E00E4FDFC022B45C4
:102A2200E4F9E924B0FFE433FEE4FDFC122B34E4C4
:102A32007882F27D017C00E4FFFE122B457882E26F
:0D2A420004F2E2C3948040EB09E9B408D52A
:012A4F002264
:0720F200788AEDF218EFF20D
:1020F900E4788DF2F9EB24E0F2EFD3947F4009E420
:102109007889F208E22402F2788CE26410706B128A
:1021190028C9E4F9788DE275F010A429F582E4352F
:10212900F0F583E582246EF582E5833402F583E4D4
:1021390093FF7E007D017C00122B4509E9B408D488
:102149007889E2FF08E204FD1228D0E4F9788DE2EB
:1021590075F010A429F582E435F0F583E58224763B
:10216900F582E5833402F583E493FF7E007D017CEB
:1021790000122B4509E9B408D4221228C9E4F978D8
:102189008DE275F006A42446F582E5F03400F58366
:10219900E58229F582E43583F583E493FF7E007DAA
:0B21A900017C00122B4509E9B406D4AC
:0121B4002208
:060003007802EFF2A905EE
:100009007F017E00AD0119ED600B7802E2FD7C00F5
:0500190012108D80EFC4
:01001E0022BF
:0D226E007803EFF208EDF208EAF208EBF257
:10227B00E4780BF27809F27807E2FF7809E2FEC303
:10228B009F4003022316C3EF9E14FD7F0A12000327
:10229B007805E2FC08E2FDCFCDCFCECCCE12109F5D
:1022AB007C007D0A12109F780AEDF208E2703078FC
:1022BB0007E214FF7809E2FEC39F502308E2701A6D
:1022CB007808E2FCC3138EF0A4FF7803E22FFF081B
:1022DB00E2FD788CECF27B208026780B7401F2788F
:1022EB0008E2FEC313FF08E2FDEF8DF0A4FF7803B5
:1022FB00E22FFF08E2FD780AE22430FB788CEEF245
:0B230B001220F27809E204F2022282A4
:0123160022A4
:10281F007882EFF208EDF208EBF208EAF208E9F23B
:10282F00E47888F27884E2FB08E2FA08E2F9788823
:10283F00E2F58275830012102CFB602A7882E2FF8A
:10284F0008E2FD7887E2788CF21220F27882E22497
:10285F0008F2E2D394784007E4F208E22402F27817
:06286F0088E204F280BEC5
:012875002240
:0B24CA007884EBF27882EFF208EDF26C
:1024D500E47885F21228D0E4F97884E275F040A416
:1024E500245EF582E5F03408F583E58229F582E47A
:1024F5003583F583E493FF7E007D017C00122B4537
:1025050008E204F209E9B410D07882E2FF08E20497
:10251500FD1228D0E4F97884E275F040A4247EF514
:1025250082E5F03408F583E58229F582E43583F503
:1025350083E493FF7E007D017C00122B4508E204B5
:06254500F209E9B410D018
:01254B00226D
:08244300780CEFF2780EEBF2C9
:10244B00E47813F208F2780FE2FF54077008EF13E9
:10245B001313541F8009780FE2131313541F0478BE
:10246B0016F27816EDF2780FE2FF7816E2FDC39FB5
:10247B00504C780CE2FF1228D0E27815F2780EE27D
:10248B00FF7815E2C39F502F7810E2FB08E2FA08A1
:10249B00E2F90808E2FF2401F218E2FE3400F28FA1
:1024AB00828E8312102CFF7E007D017C00122B4547
:0E24BB007815E204F280C67816E204F280A8DA
:0124C90022F0
:10201600E4FDFC7FAEFE122B347F40122B41E4FD23
:10202600FC7FB0FE122B45E4FDFC7F81FE122B45A2
:10203600E4FDFC7FFFFE122B45E4FDFC7FA1FE12B2
:102046002B45E4FDFC7FA6FE122B45E4FDFC7FA894
:10205600FE122B45E4FDFC7F3FFE122B45E4FDFC02
:102066007FC8FE122B45E4FDFC7FD3FE122B45E410
:10207600FDFCFFFE122B45E4FDFC7FD5FE122B4531
:10208600E4FDFC7F80FE122B45E4FDFC7FD8FE12AA
:102096002B45E4FDFC7F05FE122B45E4FDFC7FD9B4
:1020A600FE122B45E4FDFC7FF1FE122B45E4FDFC00
:1020B6007FDAFE122B45E4FDFC7F12FE122B45E46F
:1020C600FDFC7FDBFE122B45E4FDFC7F30FE122B70
:1020D60045E4FDFC7F8DFE122B45E4FDFC7F14FEDE
:0C20E600122B45E4FDFC7FAFFE022B45F1
:102ACB00851AFD000202FD852EFD000203FC852404
:102ADB00FD000204FB8529FD000221DE851FFD00A0
:032AEB00028877E7
:0D21B5007882EFF208EBF208EAF208E9F296
:1021C200E478B9F2FFFE12002E78B8EFF278867446
:1021D200FDF2E408F2EF240308F2087401F27882B7
:1021E200E2C454F04401788AF2E4FEFF78B9E2FDD9
:1021F20074862FF8E2FCED6C78B9F20FBF00010E85
:10220200EF64054E70E6E4FEFF78B8E2FDC3EF9D91
:10221200EE9400502108E2FD7883E2FB08E2FA081E
:10222200E2F98F828E8312102CFCED6C78B9F20FDA
:10223200BF00010E80D378B8E2FF7E00788B7C006D
:102242007DFEC0007883E2FB08E2FA08E2F9D000E2
:10225200120FED78B9E2FF18E2FE248BF8EFF27B61
:0C226200FE7A007986EE2406FD022B9423
:0A2B78007817EBF208EAF208E9F220
:102B820012002E7817E2FB08E2FA08E2F9AD07021A
:022B92002B9482
:0227C600AD075D
:1027C800A905E4FDFC74807E00A804088006CEA25A
:1027D800E713CE13D8F8FFE9FBE4FEEF5BFFEC2527
:1027E800E0FBC374079BFBEFA803088006CEA2E7B3
:1027F80013CE13D8F84DFD7401A804088002C33322
:10280800D8FC59FFA803088002C333D8FC4DFD0C3F
:06281800ECB404B1AF05B1
:01281E002297
:0E1CC8007890EBF208EAF208E9F2788FEFF27A
:101CD60064016003021EC3783304F2E408F208F2DA
:101CE60008F208F208F208F27893F27893E2FFC35A
:101CF6009480501174BA2FF582E43401F583E4F030
:101D0600E204F280E6E47893F27893E2FFC39480EB
:101D1600501174BA2FF582E43400F583E4F0E2043E
:101D2600F280E67890E2FB08E2FA08E2F912101374
:101D3600D394C040037F022290000A12102CB401F3
:101D460004D2BC8002C2BC121013FFE598543F4F68
:101D5600F598EF64C06008EF64406003021E3F9090
:101D6600000212122A7F007E307D2A7C0012116644
:101D7600789412125AE4FFFE7D01FC7894E2FB0887
:101D8600E2F908E2FA08E2CBF8C312120640037F32
:101D960002227894E2FB08E2F908E2FA08E2CBF8BC
:101DA600C3E49BFFE49AFE740199FDE498FC7894E1
:101DB60012125A7890E2FB08E2FA08E2F990000162
:101DC60012102CFB64017036C28E538EFE5389BFEF
:101DD6005389CF438E407894E2FC08E2FD08E2FE88
:101DE60008E2FF78081212178F8D7894080808E227
:101DF600F58BC2AB5389BF538FFDD28E8073EB64D4
:101E0600027033538EEF438E01538EF7438E047860
:101E160094E2FC08E2FD08E2FE08E2FF78081212EE
:101E2600178FD67894080808E2F5D753AFFB538E80
:101E3600F7438E10803B7F02227890E2FB08E2FA9D
:101E460008E2F9121013FF701390000812102CB458
:101E56000105438E20801A538EDF8015EFB4801162
:101E660090000812102CB401054387808003538725
:101E76007F7890E2FB08E2FA08E2F9900009121076
:101E86002CB40104D2AC8002C2AC90000712102C14
:101E9600B40104D29C8002C29C90000B12102C54F8
:101EA600C0FFE5A2543F4FF5A290000C12102CB4CF
:101EB600010543971080035397EF7F0022788FE246
:101EC60064026003022013783A7402F2E408F2080E
:101ED600F208F208F208F208F27893F27893E2FF39
:101EE600C394805011743A2FF582E43402F583E4EA
:101EF600F0E204F280E6E47893F27893E2FFC3948A
:101F0600805011743A2FF582E43401F583E4F0E24F
:101F160004F280E67890E2FB08E2FA08E2F9121091
:101F260013FF64C06008EF64406003021FD4900092
:101F36000A12102CB4010543B501800353B5FE12F5
:101F46001013B4C005439A808003539A7F90000211
:101F560012122A7F007E307D2A7C00121166789448
:101F660012125AE4FFFE7D01FC7894E2FB08E2F9C6
:101F760008E2FA08E2CBF8C312120640037F0222F7
:101F86007894E2FB08E2F908E2FA08E2CBF8C3E447
:101F96009BFFE49AFE740199FDE498FC7894121272
:101FA6005A538EEF538EF7438E047894E2FC08E280
:101FB600FD08E2FE08E2FF78081212178FD6789421
:101FC600080808E2F5D753AFFB438E1080037F0263
:101FD600227890E2FB08E2FA08E2F9900009121072
:101FE6002CB4010543AF01800353AFFE90000712E6
:101FF600102CB40105439A108003539AEF90000BFE
:0F20060012102C5401FFE5BA54FE4FF5BA7F00BB
:0120150022A8
:102B56007835E224BAF582E43401F583EFF0E20435
:102B6600F2C394804002E4F27836E2700404F2D2B2
:022B76009922A2
:102AEF00783CE2243AF582E43402F583EFF0E20415
:102AFF00F2C394804002E4F2783DE2700504F243A1
:032B0F009A022205
:102C1E00121013FF600C122B56740129F9E43AFAC4
:032C2E0080EE2213
:102C3100121013FF600C122AEF740129F9E43AFA19
:032C410080EE2200
:102B9400E4FEEEC39D5011121013FF122B560E7457
:082BA4000129F9E43AFA80EA84
:012BAC002206
:102BAD00E4FEEEC39D5011121013FF122AEF0E74A6
:082BBD000129F9E43AFA80EA6B
:012BC50022ED
:030023000225C9EA
:1025C900C0E0C083C082C0D075D000C000C006C0C2
:1025D90007309828C2987839E270217837E2C39495
:1025E900804002E4F27837E2FF04F274BA2FF582F0
:1025F900E43400F583E599F0087405F2309929C2AD
:10260900997835E2FF18E2FE6F601974BA2EF582E7
:10261900E43401F583E0F599E204F2C394804008BB
:10262900E4F280047836E4F2D007D006D000D0D0A6
:07263900D082D083D0E03213
:0300430002254C47
:10254C00C0E0C083C082C0D075D000C000C006C03F
:10255C0007E59A30E029539AFE7840E27021783EE4
:10256C00E2C394804002E4F2783EE2FF04F2743A53
:10257C002FF582E43401F583E59BF0087405F2E550
:10258C009A30E12A539AFD783CE2FF18E2FE6F6024
:10259C0019743A2EF582E43402F583E0F59BE204DB
:1025AC00F2C394804008E4F28004783DE4F2D00752
:0D25BC00D006D000D0D0D082D083D0E03245
:1027680078827440F2087401F2081212660000259B
:102778008078897401F2E408F20804F2E408F208A7
:10278800F208F27BFE7A0079827F01121CC87882F7
:102798007440F2087402F2081212660001C200784E
:1027A800897401F2E408F20804F2E408F20804F279
:0E27B800E408F27BFE7A0079827F02021CC8E0
:100A1E00EC4D6011E8497017ED33EC3304600DE4D2
:100A2E00FCFFFEFD22E933E8330470F8020C6E126F
:100A3E000C3958046009E4CC248150062850090270
:100A4E000C78284003020C75C0E0EB4A7044B98064
:100A5E0006D0E0FB020C64EF4E701CBD8008EBFF6D
:100A6E00EAFEE9FD80EBE98DF0A4FEE5F0020B074E
:100A7E00E9CDF9EAFEEBFFEF89F0A4FCE5F0CE89B3
:100A8E00F0A42EFFE435F0CD89F0A42DFEE435F070
:100A9E008067EF4E7005BD80D780C3EF8BF0A4AC9E
:100AAE00F0EE8BF0A42CFCE435F0F8EF8AF0A42CD9
:100ABE00E5F038FCE433CB8DF0A42CFCE5F03BF8EC
:100ACE00EE8AF0A42CFCE5F038F8E433CF89F0A4DC
:100ADE002CFCE5F038CF3400CE89F0A42FFFE5F0E2
:100AEE003EFEE433C98DF0A42EFEE5F039CD8AF03A
:100AFE00A42FFFE5F03EFEE43DFD33D0E0FB5007B2
:100B0E000BBB000F020C78EC2CFCEF33FFEE33FE28
:060B1E00ED33FD020C5056
:100B2400020C78EC5D046005E859047003020C6E55
:100B3400120C39580460F6EC4860F2EC7004FDFEC7
:100B4400FF22C860DB2481C85009C39860025006A4
:100B5400020C759850CAF582E9294B4A7005AB829C
:100B6400020C6475F0007C1A7880C3EF9BEE9AED5A
:100B740099400DC3EF9BFFEE9AFEED99FDE842F01C
:100B8400DC23ACF0D0E0FFD0E0FED0E0FDAB82206F
:100B9400E7101BEB60BAEC2CFCEF33FFEE33FEEDF9
:100BA40033FD020C50E803F830E705C0F075F0009F
:100BB400EF2FFFEE33FEED33FD40B830E7C280AADD
:100BC40075F020800E75F010800575F0087D007EAC
:100BD400007F003392D530D5031211F8EC33401066
:100BE400EF33FFEE33FEED33FDEC33FCD5F0ED22B5
:0E0BF400E5F0247EA2D513CC92E7CDCEFF22F1
:100C0200EDD2E7CD33EC3392D524814006E4FFFEEA
:100C1200FDFC22FCE4CFCECDCC24E0501174FF8049
:100C2200EDC3CC13CCCD13CDCE13CECF13CF0470E6
:070C3200F030D5DE0211F8DD
:10185A00E5082485F8E205082278823007027885AF
:10186A00E475F00112127F0210132000EB7F2ED2D2
:10187A00008018EF540F2490D43440D4FF30040B66
:10188A00EF24BFB41A0050032461FFE50960021572
:10189A0009050CE50C7002050B30070D7882E4751A
:1018AA00F00112127FEF021059022AA47403D20720
:1018BA008003E4C207F508788212128FE4F509F56D
:1018CA000BF50CE50960077F2012189580F5750A5B
:1018DA00FFC201C200C202C203C205C206C2081286
:1018EA001863FF700D3007057F001218A6AF0CAE03
:1018FA000B22B4255FC2D5C204121863FF24D0B4E8
:10190A000A00501A75F00A780930D50508B6FF01A1
:10191A0006C6A426F620D5047002D20380D924CFA5
:10192A00B41A00EF5004C2E5D204021B92D201801D
:10193A00C6D20080C0D20280BCD2D580BAD205807D
:10194A00B47F201218952002077401B5090040F1EE
:10195A0012185AFF1218950218CDD208D20680958D
:10196A0012185AFB12185AFA12185AF94A4B7006E8
:10197A0079897A1C7BFF20022EE509602A7E008E77
:10198A008275830012102C60060EEE650A70F0C292
:10199A00D5EBC0E0EAC0E0E9C0E0EE121BF2D0E00D
:1019AA00F9D0E0FAD0E0FB121013FF60AAEBC0E016
:1019BA00EAC0E0E9C0E0121895D0E02401F9D0E0CD
:1019CA003400FAD0E0FBE50A0460DCD50AD9808746
:1019DA00D20280A2121BD560F7E50A700104120C2C
:1019EA0083A90A600DE50A600914F50A121C7CEF46
:1019FA0060F3EA30E702F404C3995077EAF4250A5F
:101A0A000430E701E404F50A800D121BD560C1EA2F
:101A1A00050A250A120C83EA7898F230E701E425D0
:101A2A000A04D50A0420050114121BF2E4C0E012CC
:101A3A001C7C7898E2601320E70714F212187D8064
:101A4A002204F2D0E014C0E07F0012187DE50A609B
:101A5A0007121874150A800B300503121874D0E0A7
:101A6A000218CDD0E00480C5121BD560A0E50A0497
:101A7A00120C837898EAF2E50A2005026001042430
:0C1A8A0004121BF274FF04C0E0121C7C6C
:101A960012187DE50A2005026003121874D0E0B51D
:101AA6000AE87F451218877898E27F2B30E7047F93
:101AB6002DF404C0E0121895D0E075F00A84C0F049
:101AC60012187ED0E012187E0218CD7910800279A5
:101AD60008C206C2088008D2D5790A8004790AC2EB
:101AE600D5E50A047002F50AE4FAFDFEFF12185A5B
:101AF600FC7B0820011312185AFD7B1030000A12D5
:101B0600185AFE12185AFF7B20EC3382D592D55014
:101B160013C3E43000069FFFE49EFEE42001039D0C
:101B2600FDE49CFCE4CBF8C201EC700CCFCECDCC2E
:101B3600E824F8F870F38017C3EF33FFEE33FEEDB9
:101B460033FDEC33FCEB33FB994002FB0FD8E9EB9A
:101B5600300105F8D0E0C448B201C0E00AEC4D4EB1
:101B66004F78207B0070C2EAB50A0040BCC0E01284
:101B76001BF4D0F0D0E0200104C4C0E0C4B201C020
:101B8600F012187ED0F0D5F0EB0218CD121298198B
:101B96006A531AD158193B4C1937421AD54F1ADDD8
:101BA600441ADD491950431AE3551A14461A724568
:101BB60019DE471CA950193F2D19432E19662B19FA
:101BC60047231964201C922A18FF480000195EE575
:101BD6000AB4FF03750A0612185AFC12185AFD12A7
:101BE600185AFE12185AFF7891020CB2790AA2D539
:101BF600200314300509B910020404B9080104A22F
:101C0600D52006025001042002689202B509005050
:101C160034C0E07F203003197F30A20272067205BD
:101C2600500F121C4BC202C206C205C2087F30808A
:101C36000F300503E9C0E0121895300503D0E0F92E
:101C4600D0E0B509CC3005177F30B9100C121895C5
:101C56007F583004077F788003B90803121895303F
:101C660002057F2D0218957F202008F87F2B20067D
:101C7600F322920280CF7F00B4070050052491F82A
:101C8600E2FF22286E756C6C2900D20112185A30B8
:101C960001F8C201780930D50108F60218FF2D5067
:101CA60043495812185A2403B405004001E4901C15
:101CB600A493121886743A121886D2037509040280
:021CC6001AD131
:100C3900E9D2E7C933E833F892D5EDD2E7CD33EC01
:070C490033FC5002B2D5227A
:100C5000EC30E7100FBF000C0EBE00080DBD000405
:100C60000BEB6014A2D5EB13FCED92E7FD2274FFB1
:100C7000FCFDFEFF22E480F8A2D574FF13FC7D800A
:030C8000E480EF1E
:100C8300F920E72824F950037907E4F42402FB1838
:100C9300DBFDE224FB5014E9600DE4F218E204F2F8
:0F0CA300B40A08E4F2D9F57401F20A22C2D5228C
:100CB200ED33EC3392D5FA602AB4FF33EDC2E77B11
:100CC200FF60067A0C79D7E4227A0C79E020D50409
:100CD2007A0C79DB224E614E002B494E46002D499B
:100CE2004E4600E47A08F208DAFC7B00740722E838
:100CF200C0E0ECC0E0EDC0E0EEC0E0EFC0E0EA75BD
:100D0200F010A4CAABF075F04DA42BFBE435F0FC57
:100D1200EA2410FAEB34C5FBEC34D9FCEDC2E7FF50
:100D220075F056A4F42411C5F0F434C58FF0A42A4A
:100D3200E5F03BE43CF220E714120EDDD0E0FFD0F8
:100D4200E0FED0E0FDD0E0FC120B278014F4041288
:100D52000EDDD0E0FFD0E0FED0E0FDD0E0FC120AD4
:100D62001ED0E0F8E2FAEDD2E7CD33EC332482FB79
:100D7200E4C3CF33CFCE33CECD33CD33DBF37B07DA
:100D820075F00A846004F2081B0AE5F0F2088FF09D
:100D9200740AA4FFACF08EF0740AA42CFEACF050DE
:100DA200010C8DF0740AA42CFDE435F0F208DBDEB0
:030DB200740722A1
:100DB500020C6EE86480F8E933E83360110460F0F2
:100DC500ED33EC337009E8FCE9FDEAFEEBFF2204A4
:100DD50060DED3EB9FEA9EE99DE8C2E78CF0C2F79F
:100DE50095F0400CE8CCF8E9CDF9EACEFAEBCFFB6B
:100DF500120C3985D0F05804700320D5B3E804707F
:100E0500075002B2D5020C7892D5EC0460F7E4CC19
:100E1500C0E0C398F8603B94186008400DD0E0FB33
:100E2500020C50E4FBFAC9FC8028E830E406E4C96A
:100E3500FBE4CAFCE830E305E4C9CACBFCE8540787
:100E45006010F8C3E913F9EA13FAEB13FBEC13FC92
:100E5500D8F130F52FC3E49CFCEF9BFFEE9AFEED35
:100E650099FDD0E0FBEF4E4D4C701222DB03020CD6
:100E750075EC2CFCEF33FFEE33FEED33FDED30E783
:100E8500EB020C50EF2BFFEE3AFEED39FDD0E0FB07
:100E950050130BBB0003020C78ED13FDEE13FEEFB0
:080EA50013FFEC13FC020C50DA
:100EAD003F8000004120000042C80000447A00004D
:100EBD00461C400047C35000497424004B189680CF
:100ECD004CBEBC205A0E1BCA6753C21C749DC5AEC6
:100EDD00FB60065407601C2323120F0BEB54386084
:100EED0009120EF7120F06120A1EECF8EDF9EEFAC2
:100EFD00EFCB22EB120F0680F1543803241C900E19
:100F0D00ADFE93FC0EEE93FD0EEE930ECE93FF22EF
:1023C3000212F4E493A3F8E493A34003F68001F22A
:1023D30008DFF48029E493A3F85407240CC8C3331B
:1023E300C4540F4420C8834004F456800146F6DFEA
:1023F300E4800B0102040810204080902ACBE47E85
:10240300019360BCA3FF543F30E509541FFEE493DE
:10241300A360010ECF54C025E060A840B8E493A3A5
:10242300FAE493A3F8E493A3C8C582C8CAC583CAD0
:10243300F0A3C8C582C8CAC583CADFE9DEE780BE88
:012AEE0000E7
:100F1D00E709F608DFFA8046E709F208DFFA803EB6
:100F2D0088828C83E709F0A3DFFA8032E309F608A3
:100F3D00DFFA8078E309F208DFFA807088828C830B
:100F4D00E309F0A3DFFA806489828A83E0A3F608BF
:100F5D00DFFA805889828A83E0A3F208DFFA804C99
:100F6D0080D280FA80C680D4806980F28033801070
:100F7D0080A680EA809A80A880DA80E280CA8033D9
:100F8D0089828A83ECFAE493A3C8C582C8CCC58351
:100F9D00CCF0A3C8C582C8CCC583CCDFE9DEE78021
:100FAD000D89828A83E493A3F608DFF9ECFAA9F0A0
:100FBD00EDFB2289828A83ECFAE0A3C8C582C8CCF6
:100FCD00C583CCF0A3C8C582C8CCC583CCDFEADE0F
:100FDD00E880DB89828A83E493A3F208DFF980CC71
:100FED0088F0EF60010E4E60C388F0ED2402B4046A
:100FFD000050B9F582EB2402B4040050AF23234511
:06100D008223900F6D73B9
:10101300BB010689828A83E0225002E722BBFE02DB
:09102300E32289828A83E493220E
:10102C00BB010CE58229F582E5833AF583E0225079
:10103C0006E92582F8E622BBFE06E92582F8E222C3
:0D104C00E58229F582E5833AF583E49322DD
:10105900BB010689828A83F0225002F722BBFE0176
:02106900F32270
:10106B00F8BB010DE58229F582E5833AF583E8F0BB
:10107B00225006E92582C8F622BBFE05E92582C867
:02108B00F2224F
:10108D00EF8DF0A4A8F0CF8CF0A428CE8DF0A42E77
:02109D00FE2231
:10109F00BC000BBE0029EF8DF084FFADF022E4CC35
:1010AF00F875F008EF2FFFEE33FEEC33FCEE9DECFE
:1010BF00984005FCEE9DFE0FD5F0E9E4CEFD22ED44
:1010CF00F8F5F0EE8420D21CFEADF075F008EF2F8E
:1010DF00FFED33FD4007985006D5F0F222C398FD7F
:0510EF000FD5F0EA221C
:1010F400C2D5EC30E709B2D5E4C39DFDE49CFCEE17
:1011040030E715B2D5E4C39FFFE49EFE12109FC3DF
:10111400E49DFDE49CFC800312109F30D507C3E4DA
:061124009FFFE49EFE2285
:10112A0075F008758200EF2FFFEE33FECD33CDCC7C
:10113A0033CCC58233C5829BED9AEC99E5829840FF
:10114A000CF582EE9BFEED9AFDEC99FC0FD5F0D6DC
:10115A00E4CEFBE4CDFAE4CCF9A88222B800C1B906
:10116A000059BA002DEC8BF084CFCECDFCE5F0CB44
:10117A00F97818EF2FFFEE33FEED33FDEC33FCEB7D
:10118A0033FB10D703994004EB99FB0FD8E5E4F938
:10119A00FA227818EF2FFFEE33FEED33FDEC33FC25
:1011AA00C933C910D7059BE99A4007EC9BFCE99A19
:1011BA00F90FD8E0E4C9FAE4CCFB2275F010EF2F5E
:1011CA00FFEE33FEED33FDCC33CCC833C810D7075E
:1011DA009BEC9AE899400AED9BFDEC9AFCE899F899
:0E11EA000FD5F0DAE4CDFBE4CCFAE4C8F9222C
:0E11F800C3E49FFFE49EFEE49DFDE49CFC2208
:10120600EB9FF5F0EA9E42F0E99D42F0E89C45F03E
:0112160022B5
:10121700E8600FECC313FCED13FDEE13FEEF13FFB5
:03122700D8F122D9
:10122A00BB010DE58229F582E5833AF5830212CBEB
:10123A005007E92582F80212BEBBFE07E92582F8AB
:10124A000212D7E58229F582E5833AF5830212E490
:0C125A00ECF208EDF208EEF208EFF222D0
:10126600D083D082E493F208740193F20874029357
:09127600F208740393F27404738E
:10127F00FAE2FB0808E2F925F0F218E2CA3AF22284
:09128F00EBF208EAF208E9F22290
:10129800D083D082F8E4937012740193700DA3A3E5
:1012A80093F8740193F5828883E4737402936860F9
:0612B800EFA3A3A380DFF9
:102AA400EFB40A07740D122AAF740A309811A8996A
:102AB400B8130CC2983098FDA899C298B811F63092
:072AC40099FDC299F599226A
:10002E00E4FFFE121013600C0FEF70010E09E97061
:05003E00F20A80EF2230
:0D12BE00E6FB08E6F908E6FA08E6CBF822A0
:0C12CB00E0F8A3E0F9A3E0FAA3E0FB22A6
:0D12D700E2FB08E2F908E2FA08E2CBF82297
:1012E400E493F8740193F9740293FA740393FB2260
:00000001FF
