:102D9E00121A8CF59D900001121AA5FFE5BC549FE6
:102DAE004FF5BC900002121AA5B4010543BC8080F9
:102DBE000353BC7F900003121AA5B401054397205C
:102DCE0080035397DF900005121AA5B40104D2AD0B
:102DDE008002C2AD900004121AA5B40103D2BD2226
:032DEE00C2BD2241
:10303A007882743FF2087420F2087401F2E408F20C
:10304A0008F208F27BFE7A007982122D9E7F010235
:02305A0031A89B
:0C31A800EFB4010443BC802253BC7F2222
:102C3200EFD3940740028051E4F5BDF5BEE5BC54E4
:102C4200E044084FF5BC00000000E4FBE5BC30E4C2
:102C52003353BCEFE59730E509E5BD5403ADBEFC47
:102C6200801DAFBD7C00AD07ED7E007802C333CE80
:102C720033CED8F9FFE5BE5403FDEEFCEF4DFDAFB8
:0D2C820005AE04220BEBB4FAC37E047F0004
:012C8F002222
:03002B0002001FB1
:04001F0053BCEF32AD
:0F316C007D527C03ED1D70011C144C70F7DFF1D8
:01317B002231
:102E2400E47882F2D2C520C5257F0112316C20C519
:102E34001A20C5147882E2C39464500C7F0A1231BC
:102E44006C7882E204F280E97F01227F00227F0015
:012E5400225B
:102E5500E47882F2D2802080257F0112316C2080B7
:102E65001A2080147882E2C39464500C7F0A1231D0
:102E75006C7882E204F280E97F01227F00227F00E4
:012E8500222A
:102E8600E47882F2D2812081257F0112316C208183
:102E96001A2081147882E2C39464500C7F0A12319E
:102EA6006C7882E204F280E97F01227F00227F00B3
:012EB60022F9
:102EB700E47882F2D2822082257F0112316C20824F
:102EC7001A2082147882E2C39464500C7F0A12316C
:102ED7006C7882E204F280E97F01227F00227F0082
:012EE70022C8
:102EE800E47882F2D2832083257F0112316C20831B
:102EF8001A2083147882E2C39464500C7F0A12313A
:102F08006C7882E204F280E97F01227F00227F0050
:012F18002296
:102F1900E47882F2D2842084257F0112316C2084E6
:102F29001A2084147882E2C39464500C7F0A123107
:102F39006C7882E204F280E97F01227F00227F001F
:012F49002265
:1030EE00D2C520C50E7F0112316C20C5037F01228F
:0630FE007F00227F00228A
:10310400D28020800E7F0112316C2080037F012247
:063114007F00227F002273
:10311A00D28120810E7F0112316C2081037F01222E
:06312A007F00227F00225D
:10313000D28220820E7F0112316C2082037F012215
:063140007F00227F002247
:10282A00E47800F2087411F275900FE590640F7065
:10283A00030228C57F0512316CE590640F607C7530
:10284A00900FAF90AE90EE24F5601124FE60141440
:10285A00601824077019E47801F28013780174046F
:10286A00F2800C78017408F280057801740CF27514
:10287A0090F0AF90AF90EF2450601424E0601824D9
:10288A00F06018247070187801E22403F28010783E
:10289A0001E22402F280087801801B7801E2F278D2
:1028AA0000E2C3648094E45012E59064F0600C7F07
:0F28BA000A12316C7800E204F280E47801E2FF48
:0128C90022EC
:0400260012282A2250
:102ADC004368616E6E656C3A200053636F72653AA1
:102AEC0020002564B5E32564004368616E6E656C57
:102AFC003A20310053636F72653A2025322E3166CD
:102B0C002020004368616E6E656C3A203200436889
:102B1C00616E6E656C3A2033004368616E6E656C55
:102B2C003A2034004368616E6E656C3A2035004380
:102B3C0068616E6E656C3A2036002564B5E32564D9
:072B4C00D2D1B7A2CBCD00EE
:102F780074FE121AD29000017406121AE49000022C
:102F88007401121AE4900003ED121AE47886E290B4
:0D2F98000004121AE49000057480021AE48F
:0D2BCA00786AEEF208EFF218E2FE08E2FF72
:102BD700D3EF9401EE64809480500B7882121CDF4F
:102BE700000000008018AD07AC06EC1216427B000F
:102BF7007AC0797F78441215A07882121CD3788224
:102C0700E2FC08E2FD08E2FE08E2FFE4FBFA79C80D
:102C170078421214977882121CD37882E2FC08E279
:0A2C2700FD08E2FE08E2FF12167B32
:012C31002280
:10004600E47841F2F594F593122529122F4A122CE1
:100056009012303AD2AFE4FBFDFF1229DD7B01E4BA
:10006600FD7F121229DD7B02E4FD7F241229DD7B50
:1000760003E4FD7F361229DD7B04E4FD7F48122967
:10008600DD788574FFF208742AF20874DCF27BFED0
:100096007A007942121DC97BFE7A0079427887740C
:1000A60010F27D02E4FF122D47788574FFF2087482
:1000B6002AF20874E6F20206D030A003020197780D
:1000C6007CE26003020197FF122C32122BCA786A77
:1000D600EEF208EFF2788574FFF208742AF20874DB
:1000E600EEF2786AE2FA08E2FB7C007D0AFFAE02D5
:1000F600121B6D7888EEF208EFF27C007D0AAF03E2
:10010600AE02121B6D788AECF208EDF27BFE7A00E5
:100116007942121DC97BFE7A007942E4FF1226C895
:10012600787C7401F2788574FFF208742AF20874F8
:10013600F5F27BFE7A007942121DC97BFE7A0079C0
:100146004278877410F27D02E4FF122D4778857499
:10015600FFF208742BF2087400F2786AE2FC08E2F7
:10016600FDEC121642E4FBFA792078411215A078CC
:1001760088121CD37BFE7A007942121DC97BFE7A57
:1001860000794278877410F27D04E4FF122D4780CF
:100196000730A004E4787CF230A103020279787D6E
:1001A600E260030202797F01122C32786C122BCCAA
:1001B600786CEEF208EFF2788574FFF208742AF292
:1001C6000874EEF2786CE2FA08E2FB7C007D0AFF26
:1001D600AE02121B6D7888EEF208EFF27C007D0A03
:1001E600AF03AE02121B6D788AECF208EDF27BFECD
:1001F6007A007942121DC97BFE7A007942E4FF1229
:1002060026C8787D7401F2788574FFF208742BF2A3
:1002160008740FF27BFE7A007942121DC97BFE7AC2
:1002260000794278877410F27D02E4FF122D477838
:100236008574FFF208742BF2087400F2786CE2FC05
:1002460008E2FDEC121642E4FBFA79207841121519
:10025600A07888121CD37BFE7A007942121DC97BD6
:10026600FE7A00794278877410F27D04E4FF122D3D
:1002760047800730A104E4787DF230A20302035BD5
:10028600787EE2600302035B7F02122C32786E12E4
:100296002BCC786EEEF208EFF2788574FFF20874D4
:1002A6002AF20874EEF2786EE2FA08E2FB7C007D30
:1002B6000AFFAE02121B6D7888EEF208EFF27C00A0
:1002C6007D0AAF03AE02121B6D788AECF208EDF2DE
:1002D6007BFE7A007942121DC97BFE7A007942E4E0
:1002E600FF1226C8787E7401F2788574FFF20874CE
:1002F6002BF208741AF27BFE7A007942121DC97B32
:10030600FE7A00794278877410F27D02E4FF122D9E
:1003160047788574FFF208742BF2087400F2786E41
:10032600E2FC08E2FDEC121642E4FBFA7920784181
:100336001215A07888121CD37BFE7A007942121D12
:10034600C97BFE7A00794278877410F27D04E4FF57
:10035600122D47800730A204E4787EF230A3030210
:10036600043D787FE2600302043D7F03122C32785D
:1003760070122BCC7870EEF208EFF2788574FFF2EB
:1003860008742AF20874EEF27870E2FA08E2FB7C4E
:10039600007D0AFFAE02121B6D7888EEF208EFF2BE
:1003A6007C007D0AAF03AE02121B6D788AECF20860
:1003B600EDF27BFE7A007942121DC97BFE7A007946
:1003C60042E4FF1226C8787F7401F2788574FFF242
:1003D60008742BF2087425F27BFE7A007942121D0E
:1003E600C97BFE7A00794278877410F27D02E4FFB9
:1003F600122D47788574FFF208742BF2087400F208
:100406007870E2FC08E2FDEC121642E4FBFA792071
:1004160078411215A07888121CD37BFE7A007942A7
:10042600121DC97BFE7A00794278877410F27D042A
:10043600E4FF122D47800730A304E4787FF230A44E
:100446000302051F7880E2600302051F7F04122C59
:10045600327872122BCC7872EEF208EFF27885744D
:10046600FFF208742AF20874EEF27872E2FA08E2F1
:10047600FB7C007D0AFFAE02121B6D7888EEF20847
:10048600EFF27C007D0AAF03AE02121B6D788AEC98
:10049600F208EDF27BFE7A007942121DC97BFE7AE4
:1004A600007942E4FF1226C878807401F2788574D8
:1004B600FFF208742BF2087430F27BFE7A00794260
:1004C600121DC97BFE7A00794278877410F27D028C
:1004D600E4FF122D47788574FFF208742BF2087436
:1004E60000F27872E2FC08E2FDEC121642E4FBFA36
:1004F600792078411215A07888121CD37BFE7A00E9
:100506007942121DC97BFE7A00794278877410F20F
:100516007D04E4FF122D47800730A404E47880F2BE
:1005260030A5030206017881E260030206017F0519
:10053600122C327874122BCC7874EEF208EFF27823
:100546008574FFF208742AF20874EEF27874E2FAFF
:1005560008E2FB7C007D0AFFAE02121B6D7888EE76
:10056600F208EFF27C007D0AAF03AE02121B6D7833
:100576008AECF208EDF27BFE7A007942121DC97B05
:10058600FE7A007942E4FF1226C878817401F27877
:100596008574FFF208742BF208743BF27BFE7A0036
:1005A6007942121DC97BFE7A00794278877410F26F
:1005B6007D02E4FF122D47788574FFF208742BF252
:1005C600087400F27874E2FC08E2FDEC121642E4CC
:1005D600FBFA792078411215A07888121CD37BFE8D
:1005E6007A007942121DC97BFE7A007942788774B7
:1005F60010F27D04E4FF122D47800730A504E4784D
:1006060081F2122E24EF70030206EEE4FF122C3262
:10061600122BCA786AEEF208EFF27BFE7A00797640
:100626001808E27886F27D01122F787D061230D501
:10063600788574FFF208742BF2087446F2786AE241
:10064600FA08E2FB7C007D0AFFAE02121B6D788879
:10065600EEF208EFF27C007D0AAF03AE02121B6DCC
:10066600788AECF208EDF27BFE7A007942121DC917
:100676007BFE7A007942E4FF1226C8788574FFF281
:1006860008742AF20874F5F27BFE7A007942121D8C
:10069600C97BFE7A00794278877410F27D02E4FF06
:1006A600122D47788574FFF208742BF2087400F255
:1006B600786AE2FC08E2FDEC121642E4FBFA7920C5
:1006C60078411215A07888121CD37BFE7A007942F5
:1006D600121DC97BFE7A00794278877410F27D0478
:1006E600E4FF122D470200BF122E55EF70030207DA
:1006F6009A7F01122C32786C122BCC786CEEF208B1
:10070600EFF27BFE7A0079761808E27886F27D02AF
:10071600122F787D061230D5788574FFF208742B77
:10072600F208740FF27BFE7A007942121DC97BFE35
:100736007A00794278877410F27D02E4FF122D4721
:10074600788574FFF208742BF2087400F2786CE274
:10075600FC08E2FDEC121642E4FBFA79207841121D
:1007660015A07888121CD37BFE7A007942121DC927
:100776007BFE7A00794278877410F27D04E4FF12DA
:100786002D47788574FFF208742BF2087446F278C8
:100796006C02099A122E86EF70030208467F021237
:1007A6002C32786E122BCC786EEEF208EFF27BFECE
:1007B6007A0079761808E27886F27D03122F787D22
:1007C600061230D5788574FFF208742BF208741A75
:1007D600F27BFE7A007942121DC97BFE7A007942CD
:1007E60078877410F27D02E4FF122D47788574FF36
:1007F600F208742BF2087400F2786EE2FC08E2FD4F
:10080600EC121642E4FBFA792078411215A078889A
:10081600121CD37BFE7A007942121DC97BFE7A0038
:10082600794278877410F27D04E4FF122D477885AB
:1008360074FFF208742BF2087446F2786E02099A75
:10084600122EB7EF70030208F27F03122C32787073
:10085600122BCC7870EEF208EFF27BFE7A007976F6
:100866001808E27886F27D04122F787D061230D5BC
:10087600788574FFF208742BF2087425F27BFE7AF1
:10088600007942121DC97BFE7A007942788774107E
:10089600F27D02E4FF122D47788574FFF208742B6F
:1008A600F2087400F27870E2FC08E2FDEC121642DF
:1008B600E4FBFA792078411215A07888121CD37BC4
:1008C600FE7A007942121DC97BFE7A00794278874A
:1008D6007410F27D04E4FF122D47788574FFF20848
:1008E600742BF2087446F2787002099A122EE8EF19
:1008F60070030209D97F04122C327872122BCC783D
:1009060072EEF208EFF27BFE7A0079761808E2784A
:1009160086F27D05122F780D1230D5788574FFF298
:1009260008742BF2087430F27BFE7A007942121DAD
:10093600C97BFE7A00794278877410F27D02E4FF63
:10094600122D47788574FFF208742BF2087400F2B2
:100956007872E2FC08E2FDEC121642E4FBFA79201A
:1009660078411215A07888121CD37BFE7A00794252
:10097600121DC97BFE7A00794278877410F27D04D5
:10098600E4FF122D47788574FFF208742BF2087481
:1009960046F27872E2FA08E2FB7C007D0AFFAE02BC
:1009A600121B6D7888EEF208EFF27C007D0AAF0329
:1009B600AE02121B6D788AECF208EDF27BFE7A002D
:1009C6007942121DC97BFE7A007942E4FF1226C8DD
:1009D6000200BF122F19EF70030200BF7F05122C11
:1009E600327874122BCC7874EEF208EFF27BFE7A32
:1009F6000079761808E27886F27D06122F78123092
:100A0600D5788574FFF208742BF208743BF27BFEEE
:100A16007A007942121DC97BFE7A00794278877482
:100A260010F27D02E4FF122D47788574FFF20874F8
:100A36002BF2087400F27874E2FC08E2FDEC121660
:100A460042E4FBFA792078411215A07888121CD36B
:100A56007BFE7A007942121DC97BFE7A00794278C4
:100A6600877410F27D04E4FF122D47788574FFF237
:100A760008742BF2087446F27874E2FA08E2FB7CFA
:100A8600007D0AFFAE02121B6D7888EEF208EFF2C7
:100A96007C007D0AAF03AE02121B6D788AECF20869
:100AA600EDF27BFE7A007942121DC97BFE7A00794F
:090AB60042E4FF1226C80200BF51
:100ABF000000000000000000002F000000000700F1
:100ACF00070000147F147F1400242A7F2A1200626B
:100ADF006408132300364955225000000503000017
:100AEF0000001C224100000041221C000014083E9F
:100AFF0008140008083E0808000000A06000000865
:100B0F0008080808000060600000002010080402B8
:100B1F00003E5149453E0000427F40000042615176
:100B2F004946002141454B31001814127F10002710
:100B3F0045454539003C4A494930000171090503D3
:100B4F0000364949493600064949291E0000363604
:100B5F000000000056360000000814224100001467
:100B6F001414141400004122140800020151090644
:100B7F0000324959513E007C1211127C007F4949C5
:100B8F004936003E41414122007F4141221C007FF6
:100B9F0049494941007F09090901003E4149497A04
:100BAF00007F0808087F0000417F4100002040417E
:100BBF003F01007F08142241007F40404040007FEA
:100BCF00020C027F007F0408107F003E4141413E2E
:100BDF00007F09090906003E4151215E007F091976
:100BEF0029460046494949310001017F0101003F73
:100BFF004040403F001F2040201F003F4038403FF3
:100C0F000063140814630007087008070061514956
:100C1F00454300007F41410000552A552A550000E9
:100C2F0041417F0000040201020400404040404067
:100C3F00000001020400002054545478007F4844FF
:100C4F00443800384444442000384444487F003836
:100C5F005454541800087E0901020018A4A4A47C5F
:100C6F00007F080404780000447D40000040808429
:100C7F007D00007F102844000000417F4000007C71
:100C8F0004180478007C080404780038444444387D
:100C9F0000FC242424180018242418FC007C0804C9
:100CAF00040800485454542000043F444020003CA2
:100CBF004040207C001C2040201C003C4030403C29
:100CCF00004428102844001CA0A0A07C00446454B9
:100CDF004C441414141414140000000000000000FD
:100CEF000000000000000000000000F800000000FD
:100CFF00000000333000000000100C06100C06003E
:100D0F00000000000000000040C07840C0784000A4
:100D1F00043F04043F040400007088FC0830000006
:100D2F00001820FF211E0000F008F000E01800005E
:100D3F0000211C031E211E0000F008887000000017
:100D4F001E2123241927211010160E000000000069
:100D5F000000000000000000000000E01804020086
:100D6F00000000071820400000020418E0000000F7
:100D7F000040201807000000404080F080404000F5
:100D8F000202010F01020200000000F0000000004B
:100D9F000101011F0101010000000000000000001F
:100DAF0080B0700000000000000000000000000094
:100DBF00000101010101010100000000000000001D
:100DCF0000303000000000000000000080601804B8
:100DDF00006018060100000000E010080810E00095
:100DEF00000F102020100F00001010F8000000005E
:100DFF000020203F202000000070080808887000A5
:100E0F000030282422213000003008888848300024
:100E1F000018202020110E000000C02010F8000044
:100E2F0000070424243F240000F8088888080800DD
:100E3F000019212020110E0000E0108888180000F2
:100E4F00000F112020110E0000380808C8380800C4
:100E5F000000003F00000000007088080888700044
:100E6F00001C222121221C0000E010080810E000C5
:100E7F000000312222110F00000000C0C00000004E
:100E8F000000003030000000000000800000000073
:100E9F00000080600000000000008040201008006B
:100EAF000001020408102000404040404040400034
:100EBF00040404040404040000081020408000000F
:100ECF000020100804020100007048080808F00014
:100EDF000000003036010000C030C828E810E000E4
:100EEF000718272423140B000000C038E00000006F
:100EFF00203C23020227382008F8888888700000D9
:100F0F00203F202020110E00C030080808083800AC
:100F1F00071820202010080008F808080810E00023
:100F2F00203F202020100F0008F88888E8081000C4
:100F3F00203F20202320180008F88888E808100098
:100F4F00203F200003000000C030080808380000D0
:100F5F0007182020221E020008F808000008F808D1
:100F6F00203F210101213F20000808F80808000058
:100F7F000020203F2020000000000808F80808008B
:100F8F00C08080807F00000008F888C02818080003
:100F9F00203F20012638200008F80800000000003C
:100FAF00203F20202020300008F8F800F8F8080033
:100FBF00203F003F003F200008F830C00008F8082D
:100FCF00203F200007183F00E01008080810E0003D
:100FDF000F10202020100F0008F808080808F00054
:100FEF00203F210101010000E01008080810E00077
:100FFF000F18242438504F0008F88888888870000C
:10100F00203F2000030C30200070880808083800AB
:10101F000038202121221C00180808F808081800A1
:10102F000000203F2000000008F808000008F80822
:10103F00001F202020201F000878880000C83808D3
:10104F00000007380E010000F80800F80008F8004B
:10105F00033C0700073C03000818688080681808E5
:10106F0020302C03032C30200838C800C838080063
:10107F000000203F2000000010080808C8380800B2
:10108F002038262120201800000000FE0202020056
:10109F000000007F40404000000C30C00000000006
:1010AF00000000010638C00000020202FE0000002E
:1010BF00004040407F0000000000040202020400D4
:1010CF000000000000000000000000000000000011
:1010DF0080808080808080800002020400000000F9
:1010EF0000000000000000000000808080800000F1
:1010FF000019242222223F2008F8008080000000DF
:10110F00003F112020110E000000008080800000A1
:10111F00000E112020201100000000808088F800B0
:10112F00000E112020103F200000808080800000E2
:10113F00001F222222221300008080F08888881846
:10114F000020203F20200000000080808080800051
:10115F00006B94949493600008F8008080800000E6
:10116F00203F210000203F200080989800000000C1
:10117F000020203F202000000000008098980000F1
:10118F0000C08080807F000008F800008080800011
:10119F00203F24022D302000000808F80000000036
:1011AF000020203F202000008080808080808000F1
:1011BF00203F20003F20003F808000808080000083
:1011CF00203F210000203F20000080808080000011
:1011DF00001F202020201F00808000808000000042
:1011EF0080FFA12020110E00000000808080800071
:1011FF00000E112020A0FF80808080008080800062
:10120F0020203F212000010000008080808080008E
:10121F000033242424241900008080E08080000003
:10122F000000001F20200000808000000080800050
:10123F00001F202020103F208080800000808080B1
:10124F0000010E3008060100808000800080808041
:10125F000F300C030C300F00008080008080800066
:10126F000020312E0E312000808080000080808091
:10127F0080818E7018060100008080808080800041
:10128F000021302C2221300000000000807C02025F
:10129F0000000000003F404000000000FF00000081
:1012AF0000000000FF0000000002027C8000000030
:1012BF000040403F0000000000060101020204044C
:1012CF0000000000000000000040424242C27E4287
:1012DF00C2424242404000000000000000000000F7
:1012EF000000000000000000804020100C030000F0
:1012FF003F40404040700000000000000000000030
:10130F0000000000000000002030AC632018809027
:10131F0090FF90494A484000000000000000000084
:10132F00000000000000000022672212121240404D
:10133F0020130C142241F8000000000000000000F0
:10134F000000000000000000404042CC000012628C
:10135F0002FE024232000000000000000000000008
:10136F0000000000000000000000003F1009010114
:10137F0001FF010101010100000000000000000059
:10138F0000000000000000008040209088868080D0
:10139F0080838C10204080000000000000000000BF
:1013AF0000000000000000000080402018070040EF
:1013BF0080403F000000000000000000000000001F
:1013CF00000000000000000080809E9292929EE03C
:1013DF00809EB2D2929E80000000000000000000AC
:1013EF0000000000000000000808F4949292F10041
:1013FF0001F2929494F80800000000000000000031
:10140F0000000000000000002424A4FEA3220022FC
:10141F00CC0000FF000000000000000000000000F2
:10142F000000000000000000080601FF0001040496
:10143F00040404FF0202020000000000000000008C
:10144F000000000000000000101010FF109008882E
:10145F008888FF88888808000000000000000000CE
:10146F0000000000000000000444827F01808040E3
:10147F00432C10284681800000000000000000006F
:08148F00000000000000000055
:0931B400D2B3D2B4C2B4C2B322FA
:0731BD00D2B3C2B4D2B42268
:0B317C00122FAC123187AF04122FACF1
:05318700D2B3C2B32227
:072FA500AC071231B47F7884
:102FAC00C2B3E4FEAD07ED5480B48004D2B4800209
:0F2FBC00C2B4EF25E0FFD2B3C2B30EEEB408E506
:012FCB0022E3
:0E318C00122FA5123187E4FF12317C0231BDF3
:0E319A00122FA51231877F4012317C0231BD09
:10305C0012306DE4FDFCFFFE12306D7F10E4FDFCC0
:01306C00FE65
:10306D00AB07AA06ED4C600302319AAF0312318C07
:01307D002230
:072DF1007889E2FF08E2FD12
:102DF800A907ED24B0FFE433FEE4FDFC12306DE9D1
:102E080054F0C4540F7E004410FFE4FDFC12306DF2
:0C2E1800E9540FFF7E00E4FDFC02306D69
:102F4A00E4F9E924B0FFE433FEE4FDFC12305CE46A
:102F5A007882F27D017C00E4FFFE12306D7882E215
:0D2F6A0004F2E2C3948040EB09E9B408D5FD
:012F77002237
:07260500788AEDF218EFF2F4
:10260C00E4788DF2F9EB24E0F2EFD3947F4009E407
:10261C007889F208E22402F2788CE26410706B1272
:10262C002DF1E4F9788DE275F010A429F582E435EA
:10263C00F0F583E58224E7F582E583340CF583E439
:10264C0093FF7E007D017C0012306D09E9B408D443
:10265C007889E2FF08E204FD122DF8E4F9788DE2A6
:10266C0075F010A429F582E435F0F583E58224EFAA
:10267C00F582E583340CF583E493FF7E007D017CC9
:10268C000012306D09E9B408D422122DF1E4F97866
:10269C008DE275F006A424BFF582E5F0340AF583CB
:1026AC00E58229F582E43583F583E493FF7E007D92
:0B26BC00017C0012306D09E9B406D467
:0126C70022F0
:060003007802EFF2A905EE
:100009007F017E00AD0119ED600B7802E2FD7C00F5
:05001900121B0680EF40
:01001E0022BF
:0D2781007803EFF208EDF208EAF208EBF23F
:10278E00E4780BF27809F27807E2FF7809E2FEC3EB
:10279E009F4003022829C3EF9E14FD7F0A120003F7
:1027AE007805E2FC08E2FDCFCDCFCECCCE121B18C1
:1027BE007C007D0A121B18780AEDF208E270307860
:1027CE0007E214FF7809E2FEC39F502308E2701A55
:1027DE007808E2FCC3138EF0A4FF7803E22FFF0803
:1027EE00E2FD788CECF27B208026780B7401F27877
:1027FE0008E2FEC313FF08E2FDEF8DF0A4FF78039D
:10280E00E22FFF08E2FD780AE22430FB788CEEF22C
:0B281E001226057809E204F20227955B
:01282900228C
:102D47007882EFF208EDF208EBF208EAF208E9F20E
:102D5700E47888F27884E2FB08E2FA08E2F97888F6
:102D6700E2F582758300121AA5FB602A7882E2FFDA
:102D770008E2FD7887E2788CF21226057882E22451
:102D870008F2E2D394784007E4F208E22402F278EA
:062D970088E204F280BE98
:012D9D002213
:0B29DD007884EBF27882EFF208EDF254
:1029E800E47885F2122DF8E4F97884E275F040A4D1
:1029F80024D7F582E5F03412F583E58229F582E4DF
:102A08003583F583E493FF7E007D017C0012306DF1
:102A180008E204F209E9B410D07882E2FF08E2047F
:102A2800FD122DF8E4F97884E275F040A424F7F556
:102A380082E5F03412F583E58229F582E43583F5E1
:102A480083E493FF7E007D017C0012306D08E20470
:062A5800F209E9B410D000
:012A5E002255
:08295600780CEFF2780EEBF2B1
:10295E00E47813F208F2780FE2FF54077008EF13D1
:10296E001313541F8009780FE2131313541F0478A6
:10297E0016F27816EDF2780FE2FF7816E2FDC39F9D
:10298E00504C780CE2FF122DF8E27815F2780EE238
:10299E00FF7815E2C39F502F7810E2FB08E2FA0889
:1029AE00E2F90808E2FF2401F218E2FE3400F28F89
:1029BE00828E83121AA5FF7E007D017C0012306D7F
:0E29CE007815E204F280C67816E204F280A8C2
:0129DC0022D8
:10252900E4FDFC7FAEFE12305C7F40123069E4FDB1
:10253900FC7FB0FE12306DE4FDFC7F81FE12306D30
:10254900E4FDFC7FFFFE12306DE4FDFC7FA1FE126D
:10255900306DE4FDFC7FA6FE12306DE4FDFC7FA822
:10256900FE12306DE4FDFC7F3FFE12306DE4FDFC90
:102579007FC8FE12306DE4FDFC7FD3FE12306DE49E
:10258900FDFCFFFE12306DE4FDFC7FD5FE12306DBF
:10259900E4FDFC7F80FE12306DE4FDFC7FD8FE1265
:1025A900306DE4FDFC7F05FE12306DE4FDFC7FD942
:1025B900FE12306DE4FDFC7FF1FE12306DE4FDFC8E
:1025C9007FDAFE12306DE4FDFC7F12FE12306DE4FD
:1025D900FDFC7FDBFE12306DE4FDFC7F30FE123026
:1025E9006DE4FDFC7F8DFE12306DE4FDFC7F14FE71
:0C25F90012306DE4FDFC7FAFFE02306D7F
:102FF300851AFD000202FD852EFD000203FC8524D7
:10300300FD000204FB8529FD000221DE851FFD0072
:03301300028877B9
:0D26C8007882EFF208EBF208EAF208E9F27E
:1026D500E478B9F2FFFE12002E78B8EFF27886742E
:1026E500FDF2E408F2EF240308F2087401F278829F
:1026F500E2C454F04401788AF2E4FEFF78B9E2FDC1
:1027050074862FF8E2FCED6C78B9F20FBF00010E6C
:10271500EF64054E70E6E4FEFF78B8E2FDC3EF9D79
:10272500EE9400502108E2FD7883E2FB08E2FA0806
:10273500E2F98F828E83121AA5FCED6C78B9F20F3F
:10274500BF00010E80D378B8E2FF7E00788B7C0055
:102755007DFEC0007883E2FB08E2FA08E2F9D000CA
:10276500121A6678B9E2FF18E2FE248BF8EFF27BC5
:0C277500FE7A007986EE2406FD0230BCDE
:0A30A0007817EBF208EAF208E9F2F3
:1030AA0012002E7817E2FB08E2FA08E2F9AD0702ED
:0230BA0030BC28
:022CEE00AD0730
:102CF000A905E4FDFC74807E00A804088006CEA22D
:102D0000E713CE13D8F8FFE9FBE4FEEF5BFFEC25F9
:102D1000E0FBC374079BFBEFA803088006CEA2E785
:102D200013CE13D8F84DFD7401A804088002C333F4
:102D3000D8FC59FFA803088002C333D8FC4DFD0C12
:062D4000ECB404B1AF0584
:012D4600226A
:0E21DB007890EBF208EAF208E9F2788FEFF262
:1021E900640160030223D6783304F2E408F208F2AA
:1021F90008F208F208F208F27893F27893E2FFC342
:102209009480501174BA2FF582E43401F583E4F017
:10221900E204F280E6E47893F27893E2FFC39480D3
:10222900501174BA2FF582E43400F583E4F0E20426
:10223900F280E67890E2FB08E2FA08E2F9121A8CD9
:10224900D394C040037F022290000A121AA5B40158
:1022590004D2BC8002C2BC121A8CFFE598543F4FCD
:10226900F598EF64C06008EF644060030223529060
:102279000002121CA37F007E307D2A7C00121BDF26
:102289007894121CD3E4FFFE7D01FC7894E2FB08EC
:10229900E2F908E2FA08E2CBF8C3121C7F40037F97
:1022A90002227894E2FB08E2F908E2FA08E2CBF8A4
:1022B900C3E49BFFE49AFE740199FDE498FC7894C9
:1022C900121CD37890E2FB08E2FA08E2F9900001C7
:1022D900121AA5FB64017036C28E538EFE5389BF54
:1022E9005389CF438E407894E2FC08E2FD08E2FE70
:1022F90008E2FF7808121C908F8D7894080808E28C
:10230900F58BC2AB5389BF538FFDD28E8073EB64BB
:10231900027033538EEF438E01538EF7438E047848
:1023290094E2FC08E2FD08E2FE08E2FF7808121CCC
:10233900908FD67894080808E2F5D753AFFB538EEF
:10234900F7438E10803B7F02227890E2FB08E2FA85
:1023590008E2F9121A8CFF7013900008121AA5B43A
:102369000105438E20801A538EDF8015EFB480114A
:10237900900008121AA5B40105438780800353878A
:102389007F7890E2FB08E2FA08E2F9900009121A54
:10239900A5B40104D2AC8002C2AC900007121AA500
:1023A900B40104D29C8002C29C90000B121AA5545D
:1023B900C0FFE5A2543F4FF5A290000C121AA5B434
:1023C900010543971080035397EF7F0022788FE22E
:1023D90064026003022526783A7402F2E408F208DE
:1023E900F208F208F208F208F27893F27893E2FF21
:1023F900C394805011743A2FF582E43402F583E4D2
:10240900F0E204F280E6E47893F27893E2FFC39471
:10241900805011743A2FF582E43401F583E4F0E237
:1024290004F280E67890E2FB08E2FA08E2F9121A6F
:102439008CFF64C06008EF644060030224E79000E9
:102449000A121AA5B4010543B501800353B5FE125A
:102459001A8CB4C005439A808003539A7F90000276
:10246900121CA37F007E307D2A7C00121BDF78942A
:10247900121CD3E4FFFE7D01FC7894E2FB08E2F92B
:1024890008E2FA08E2CBF8C3121C7F40037F02225C
:102499007894E2FB08E2F908E2FA08E2CBF8C3E42F
:1024A9009BFFE49AFE740199FDE498FC7894121C50
:1024B900D3538EEF538EF7438E047894E2FC08E2EF
:1024C900FD08E2FE08E2FF7808121C908FD6789486
:1024D900080808E2F5D753AFFB438E1080037F024B
:1024E900227890E2FB08E2FA08E2F9900009121A50
:1024F900A5B4010543AF01800353AFFE9000071255
:102509001AA5B40105439A108003539AEF90000B62
:0F251900121AA55401FFE5BA54FE4FF5BA7F0020
:012528002290
:10307E007835E224BAF582E43401F583EFF0E20408
:10308E00F2C394804002E4F27836E2700404F2D285
:02309E00992275
:10301700783CE2243AF582E43402F583EFF0E204E7
:10302700F2C394804002E4F2783DE2700504F24373
:033037009A0222D8
:10314600121A8CFF600C12307E740129F9E43AFAE7
:0331560080EE22E6
:10315900121A8CFF600C123017740129F9E43AFA3B
:0331690080EE22D3
:1030BC00E4FEEEC39D5011121A8CFF12307E0E747A
:0830CC000129F9E43AFA80EA57
:0130D40022D9
:1030D500E4FEEEC39D5011121A8CFF1230170E74C8
:0830E5000129F9E43AFA80EA3E
:0130ED0022C0
:03002300022B535A
:102B5300C0E0C083C082C0D075D000C000C006C032
:102B630007309828C2987839E270217837E2C39405
:102B7300804002E4F27837E2FF04F274BA2FF58260
:102B8300E43400F583E599F0087405F2309929C21D
:102B9300997835E2FF18E2FE6F601974BA2EF58258
:102BA300E43401F583E0F599E204F2C3948040082C
:102BB300E4F280047836E4F2D007D006D000D0D017
:072BC300D082D083D0E03284
:03004300022A5F2F
:102A5F00C0E0C083C082C0D075D000C000C006C027
:102A6F0007E59A30E029539AFE7840E27021783ECC
:102A7F00E2C394804002E4F2783EE2FF04F2743A3B
:102A8F002FF582E43401F583E59BF0087405F2E538
:102A9F009A30E12A539AFD783CE2FF18E2FE6F600C
:102AAF0019743A2EF582E43402F583E0F59BE204C3
:102ABF00F2C394804008E4F28004783DE4F2D0073A
:0D2ACF00D006D000D0D0D082D083D0E0322D
:102C900078827440F2087401F208121CDF000025EB
:102CA0008078897401F2E408F20804F2E408F2087A
:102CB000F208F27BFE7A0079827F011221DB7882B2
:102CC0007440F2087402F208121CDF0001C200789E
:102CD000897401F2E408F20804F2E408F20804F24C
:0E2CE000E408F27BFE7A0079827F020221DB9B
:10149700EC4D6011E8497017ED33EC3304600DE44F
:1014A700FCFFFEFD22E933E8330470F80216E71269
:1014B70016B258046009E4CC24815006285009026A
:1014C70016F12840030216EEC0E0EB4A7044B980DB
:1014D70006D0E0FB0216DDEF4E701CBD8008EBFF67
:1014E700EAFEE9FD80EBE98DF0A4FEE5F002158048
:1014F700E9CDF9EAFEEBFFEF89F0A4FCE5F0CE8930
:10150700F0A42EFFE435F0CD89F0A42DFEE435F0EC
:101517008067EF4E7005BD80D780C3EF8BF0A4AC1A
:10152700F0EE8BF0A42CFCE435F0F8EF8AF0A42C55
:10153700E5F038FCE433CB8DF0A42CFCE5F03BF868
:10154700EE8AF0A42CFCE5F038F8E433CF89F0A458
:101557002CFCE5F038CF3400CE89F0A42FFFE5F05E
:101567003EFEE433C98DF0A42EFEE5F039CD8AF0B6
:10157700A42FFFE5F03EFEE43DFD33D0E0FB50072E
:101587000BBB000F0216F1EC2CFCEF33FFEE33FE22
:06159700ED33FD0216C950
:10159D000216F1EC5D046005E8590470030216E7CC
:1015AD001216B2580460F6EC4860F2EC7004FDFEC1
:1015BD00FF22C860DB2481C85009C3986002500621
:1015CD000216EE9850CAF582E9294B4A7005AB8296
:1015DD000216DD75F0007C1A7880C3EF9BEE9AED54
:1015ED0099400DC3EF9BFFEE9AFEED99FDE842F099
:1015FD00DC23ACF0D0E0FFD0E0FED0E0FDAB8220EC
:10160D00E7101BEB60BAEC2CFCEF33FFEE33FEED75
:10161D0033FD0216C9E803F830E705C0F075F00098
:10162D00EF2FFFEE33FEED33FD40B830E7C280AA59
:10163D0075F020800E75F010800575F0087D007E28
:10164D00007F003392D530D503121C71EC3340105E
:10165D00EF33FFEE33FEED33FDEC33FCD5F0ED2231
:0E166D00E5F0247EA2D513CC92E7CDCEFF226D
:10167B00EDD2E7CD33EC3392D524814006E4FFFE67
:10168B00FDFC22FCE4CFCECDCC24E0501174FF80C6
:10169B00EDC3CC13CCCD13CDCE13CECF13CF047063
:0716AB00F030D5DE021C71D6
:101D6D00E5082485F8E20508227882300702788597
:101D7D00E475F001121CF8021A8C2000EB7F2ED2B4
:101D8D00008018EF540F2490D43440D4FF30040B4E
:101D9D00EF24BFB41A0050032461FFE5096002155A
:101DAD0009050CE50C7002050B30070D7882E47502
:101DBD00F001121CF8EF021AD2022FCC7403D207D5
:101DCD008003E4C207F5087882121D08E4F509F5D1
:101DDD000BF50CE50960077F20121DA880F5750A2B
:101DED00FFC201C200C202C203C205C206C208126E
:101DFD001D76FF700D3007057F00121DB9AF0CAEBB
:101E0D000B22B4255FC2D5C204121D76FF24D0B4B7
:101E1D000A00501A75F00A780930D50508B6FF0189
:101E2D0006C6A426F620D5047002D20380D924CF8D
:101E3D00B41A00EF5004C2E5D2040220A5D20180ED
:101E4D00C6D20080C0D20280BCD2D580BAD2058065
:101E5D00B47F20121DA82002077401B5090040F1BE
:101E6D00121D6DFF121DA8021DE0D208D20680952D
:101E7D00121D6DFB121D6DFA121D6DF94A4B700688
:101E8D00799C7A217BFF20022EE509602A7E008E47
:101E9D0082758300121AA560060EEE650A70F0C2F7
:101EAD00D5EBC0E0EAC0E0E9C0E0EE122105D0E0DC
:101EBD00F9D0E0FAD0E0FB121A8CFF60AAEBC0E07B
:101ECD00EAC0E0E9C0E0121DA8D0E02401F9D0E09D
:101EDD003400FAD0E0FBE50A0460DCD50AD980872E
:101EED00D20280A21220E860F7E50A7001041216F2
:101EFD00FCA90A600DE50A600914F50A12218FEF9D
:101F0D0060F3EA30E702F404C3995077EAF4250A46
:101F1D000430E701E404F50A800D1220E860C1EAFF
:101F2D00050A250A1216FCEA7898F230E701E42535
:101F3D000A04D50A0420050114122105E4C0E0129B
:101F4D00218F7898E2601320E70714F2121D90801C
:101F5D002204F2D0E014C0E07F00121D90E50A606B
:101F6D0007121D87150A800B300503121D87D0E05F
:101F7D00021DE0D0E00480C51220E860A0E50A044F
:101F8D001216FC7898EAF2E50A2005026001042495
:0C1F9D000412210574FF04C0E012218F23
:101FA900121D90E50A2005026003121D87D0E0B5D5
:101FB9000AE87F45121D9A7898E27F2B30E7047F63
:101FC9002DF404C0E0121DA8D0E075F00A84C0F019
:101FD900121D91D0E0121D91021DE0791080027945
:101FE90008C206C2088008D2D5790A8004790AC2D3
:101FF900D5E50A047002F50AE4FAFDFEFF121D6D2B
:10200900FC7B08200113121D6DFD7B1030000A12A4
:102019001D6DFE121D6DFF7B20EC3382D592D550CC
:1020290013C3E43000069FFFE49EFEE42001039DF4
:10203900FDE49CFCE4CBF8C201EC700CCFCECDCC16
:10204900E824F8F870F38017C3EF33FFEE33FEEDA1
:1020590033FDEC33FCEB33FB994002FB0FD8E9EB82
:10206900300105F8D0E0C448B201C0E00AEC4D4E99
:102079004F78207B0070C2EAB50A0040BCC0E0126C
:102089002107D0F0D0E0200104C4C0E0C4B201C0EF
:10209900F0121D91D0F0D5F0EB021DE0121D111EBA
:1020A9007D531FE4581E4E4C1E4A421FE84F1FF035
:1020B900441FF0491E63431FF6551F27461F8545D8
:1020C9001EF14721BC501E522D1E562E1E792B1E65
:1020D9005A231E772021A52A1E124800001E71E5E9
:1020E9000AB4FF03750A06121D6DFC121D6DFD125F
:1020F9001D6DFE121D6DFF789102172B790AA2D56D
:10210900200314300509B910020404B9080104A216
:10211900D52006025001042002689202B509005038
:1021290034C0E07F203003197F30A20272067205A5
:10213900500F12215EC202C206C205C2087F30805A
:102149000F300503E9C0E0121DA8300503D0E0F9FE
:10215900D0E0B509CC3005177F30B9100C121DA895
:102169007F583004077F788003B90803121DA8300F
:1021790002057F2D021DA87F202008F87F2B20064D
:10218900F322920280CF7F00B4070050052491F812
:10219900E2FF22286E756C6C2900D201121D6D3088
:1021A90001F8C201780930D50108F6021E122D5036
:1021B900434958121D6D2403B405004001E49021E0
:1021C900B793121D99743A121D99D2037509040225
:0221D9001FE401
:1016B200E9D2E7C933E833F892D5EDD2E7CD33EC7E
:0716C20033FC5002B2D522F7
:1016C900EC30E7100FBF000C0EBE00080DBD000482
:1016D9000BEB6014A2D5EB13FCED92E7FD2274FF2E
:1016E900FCFDFEFF22E480F8A2D574FF13FC7D8087
:0316F900E480EF9B
:1016FC00F920E72824F950037907E4F42402FB18B5
:10170C00DBFDE224FB5014E9600DE4F218E204F274
:0F171C00B40A08E4F2D9F57401F20A22C2D52208
:10172B00ED33EC3392D5FA602AB4FF33EDC2E77B8D
:10173B00FF60067A177950E4227A17795920D5047D
:10174B007A177954224E614E002B494E46002D4993
:10175B004E4600E47A08F208DAFC7B00740722E8B4
:10176B00C0E0ECC0E0EDC0E0EEC0E0EFC0E0EA7539
:10177B00F010A4CAABF075F04DA42BFBE435F0FCD4
:10178B00EA2410FAEB34C5FBEC34D9FCEDC2E7FFCD
:10179B0075F056A4F42411C5F0F434C58FF0A42AC7
:1017AB00E5F03BE43CF220E714121956D0E0FFD0F1
:1017BB00E0FED0E0FDD0E0FC1215A08014F4041282
:1017CB001956D0E0FFD0E0FED0E0FDD0E0FC1214C3
:1017DB0097D0E0F8E2FAEDD2E7CD33EC332482FB7D
:1017EB00E4C3CF33CFCE33CECD33CD33DBF37B0757
:1017FB0075F00A846004F2081B0AE5F0F2088FF01A
:10180B00740AA4FFACF08EF0740AA42CFEACF0505A
:10181B00010C8DF0740AA42CFDE435F0F208DBDE2C
:03182B007407221D
:10182E000216E7E86480F8E933E83360110460F0EB
:10183E00ED33EC337009E8FCE9FDEAFEEBFF220420
:10184E0060DED3EB9FEA9EE99DE8C2E78CF0C2F71B
:10185E0095F0400CE8CCF8E9CDF9EACEFAEBCFFBE7
:10186E001216B285D0F05804700320D5B3E8047078
:10187E00075002B2D50216F192D5EC0460F7E4CC13
:10188E00C0E0C398F8603B94186008400DD0E0FBB0
:10189E000216C9E4FBFAC9FC8028E830E406E4C964
:1018AE00FBE4CAFCE830E305E4C9CACBFCE8540704
:1018BE006010F8C3E913F9EA13FAEB13FBEC13FC0F
:1018CE00D8F130F52FC3E49CFCEF9BFFEE9AFEEDB2
:1018DE0099FDD0E0FBEF4E4D4C701222DB03021649
:1018EE00EEEC2CFCEF33FFEE33FEED33FDED30E787
:1018FE00EB0216C9EF2BFFEE3AFEED39FDD0E0FB01
:10190E0050130BBB00030216F1ED13FDEE13FEEFA9
:08191E0013FFEC13FC0216C9D3
:101926003F8000004120000042C80000447A0000C9
:10193600461C400047C35000497424004B1896804B
:101946004CBEBC205A0E1BCA6753C21C749DC5AE42
:10195600FB60065407601C2323121984EB5438607D
:101966000912197012197F121497ECF8EDF9EEFAB4
:10197600EFCB22EB12197F80F1543803241C901907
:1019860026FE93FC0EEE93FD0EEE930ECE93FF22F3
:030000000228CA09
:0C28CA00787FE4F6D8FD75812102291109
:10199600E709F608DFFA8046E709F208DFFA803E33
:1019A60088828C83E709F0A3DFFA8032E309F60820
:1019B600DFFA8078E309F208DFFA807088828C8388
:1019C600E309F0A3DFFA806489828A83E0A3F6083C
:1019D600DFFA805889828A83E0A3F208DFFA804C16
:1019E60080D280FA80C680D4806980F280338010ED
:1019F60080A680EA809A80A880DA80E280CA803356
:101A060089828A83ECFAE493A3C8C582C8CCC583CD
:101A1600CCF0A3C8C582C8CCC583CCDFE9DEE7809D
:101A26000D89828A83E493A3F608DFF9ECFAA9F01C
:101A3600EDFB2289828A83ECFAE0A3C8C582C8CC72
:101A4600C583CCF0A3C8C582C8CCC583CCDFEADE8B
:101A5600E880DB89828A83E493A3F208DFF980CCED
:101A660088F0EF60010E4E60C388F0ED2402B404E6
:101A76000050B9F582EB2402B4040050AF2323458D
:061A860082239019E673B3
:101A8C00BB010689828A83E0225002E722BBFE0258
:091A9C00E32289828A83E493228B
:101AA500BB010CE58229F582E5833AF583E02250F6
:101AB50006E92582F8E622BBFE06E92582F8E22240
:0D1AC500E58229F582E5833AF583E493225A
:101AD200BB010689828A83F0225002F722BBFE01F3
:021AE200F322ED
:101AE400F8BB010DE58229F582E5833AF583E8F038
:101AF400225006E92582C8F622BBFE05E92582C8E4
:021B0400F222CB
:101B0600EF8DF0A4A8F0CF8CF0A428CE8DF0A42EF3
:021B1600FE22AD
:101B1800BC000BBE0029EF8DF084FFADF022E4CCB1
:101B2800F875F008EF2FFFEE33FEEC33FCEE9DEC7A
:101B3800984005FCEE9DFE0FD5F0E9E4CEFD22EDC0
:101B4800F8F5F0EE8420D21CFEADF075F008EF2F0A
:101B5800FFED33FD4007985006D5F0F222C398FDFB
:051B68000FD5F0EA2298
:101B6D00C2D5EC30E709B2D5E4C39DFDE49CFCEE93
:101B7D0030E715B2D5E4C39FFFE49EFE121B18C3D8
:101B8D00E49DFDE49CFC8003121B1830D507C3E4D3
:061B9D009FFFE49EFE2202
:101BA30075F008758200EF2FFFEE33FECD33CDCCF9
:101BB30033CCC58233C5829BED9AEC99E58298407C
:101BC3000CF582EE9BFEED9AFDEC99FC0FD5F0D659
:101BD300E4CEFBE4CDFAE4CCF9A88222B800C1B983
:101BE3000059BA002DEC8BF084CFCECDFCE5F0CBC1
:101BF300F97818EF2FFFEE33FEED33FDEC33FCEBFA
:101C030033FB10D703994004EB99FB0FD8E5E4F9B4
:101C1300FA227818EF2FFFEE33FEED33FDEC33FCA1
:101C2300C933C910D7059BE99A4007EC9BFCE99A95
:101C3300F90FD8E0E4C9FAE4CCFB2275F010EF2FDA
:101C4300FFEE33FEED33FDCC33CCC833C810D707DA
:101C53009BEC9AE899400AED9BFDEC9AFCE899F815
:0E1C63000FD5F0DAE4CDFBE4CCFAE4C8F922A8
:0E1C7100C3E49FFFE49EFEE49DFDE49CFC2284
:101C7F00EB9FF5F0EA9E42F0E99D42F0E89C45F0BB
:011C8F002232
:101C9000E8600FECC313FCED13FDEE13FEEF13FF32
:031CA000D8F12256
:101CA300BB010DE58229F582E5833AF583021D44E4
:101CB3005007E92582F8021D37BBFE07E92582F8A4
:101CC300021D50E58229F582E5833AF583021D5D05
:0C1CD300ECF208EDF208EEF208EFF2224D
:101CDF00D083D082E493F208740193F208740293D4
:091CEF00F208740393F27404730B
:101CF800FAE2FB0808E2F925F0F218E2CA3AF22201
:091D0800EBF208EAF208E9F2220C
:101D1100D083D082F8E4937012740193700DA3A361
:101D210093F8740193F5828883E473740293686075
:061D3100EFA3A3A380DF75
:102FCC00EFB40A07740D122FD7740A309811A89910
:102FDC00B8130CC2983098FDA899C298B811F63065
:072FEC0099FDC299F599223D
:10002E00E4FFFE121A8C600C0FEF70010E09E970DE
:05003E00F20A80EF2230
:1028D600020046E493A3F8E493A34003F68001F2D2
:1028E60008DFF48029E493A3F85407240CC8C33303
:1028F600C4540F4420C8834004F456800146F6DFD2
:10290600E4800B0102040810204080902FF3E47E3F
:10291600019360BCA3FF543F30E509541FFEE493C6
:10292600A360010ECF54C025E060A840B8E493A38D
:10293600FAE493A3F8E493A3C8C582C8CAC583CAB8
:10294600F0A3C8C582C8CAC583CADFE9DEE780BE70
:0130160000B9
:0D1D3700E6FB08E6F908E6FA08E6CBF8221C
:0C1D4400E0F8A3E0F9A3E0FAA3E0FB2222
:0D1D5000E2FB08E2F908E2FA08E2CBF82213
:101D5D00E493F8740193F9740293FA740393FB22DC
:00000001FF
